:020000040800F2
:1000000030070020DD01000899140008E112000803
:1000100095140008510A000843260008000000005B
:10002000000000000000000000000000EF190008C0
:10003000550A00080000000059180008011B0008BC
:10004000F7010008F7010008F7010008F7010008B0
:10005000F7010008F7010008F7010008F7010008A0
:10006000F7010008F7010008F7010008F701000890
:10007000F7010008F7010008F7010008F701000880
:10008000F7010008F7010008F7010008F701000870
:10009000F7010008F7010008F7010008F701000860
:1000A000F7010008F7010008F7010008F701000850
:1000B000FD1B0008F7010008F7010008F701000820
:1000C000F7010008F7010008F7010008F701000830
:1000D000F7010008552300088D230008F7010008E8
:1000E000F7010008F7010008F7010008F701000810
:1000F000F7010008F7010008F7010008F701000800
:10010000F7010008F7010008F7010008F7010008EF
:10011000F7010008F7010008F7010008F7010008DF
:10012000F7010008F7010008F7010008F7010008CF
:1001300000F002F800F043F80AA090E8000C8244B6
:100140008344AAF10107DA4501D100F038F8AFF293
:10015000090EBAE80F0013F0010F18BFFB1A43F0A5
:100160000103184794290000B4290000103A24BF65
:1001700078C878C1FAD8520724BF30C830C144BF0C
:1001800004680C607047000000230024002500264E
:10019000103A28BF78C1FBD8520728BF30C148BFEA
:1001A0000B607047642900F0A580002070471FB5E0
:1001B0009DE8030000F0C8FA1FBD10B510BD00F0A7
:1001C000C9FB1146FFF7F3FF02F090FB00F0E7FBDD
:1001D00003B4FFF7F2FF03BC00F014FC09488047AA
:1001E00009480047FEE7FEE7FEE7FEE7FEE7FEE719
:1001F000FEE7FEE7FEE7FEE704480549054A064B31
:10020000704700009D1B00083101000830010020EC
:1002100030070020300300203003002070B5064670
:1002200000F076FA056806F10B0020F00704B442EE
:100230009CBF002070BD2B466A68BAB11068A0420E
:1002400010D304F1080188423CBF5068586007D3BE
:100250005168101941601168091B016058601460F1
:10026000101D70BD13465268002AE7D1214628466A
:1002700000F056FA0028DED170BD70B50446051FA7
:1002800000F046FA0068002C14BF446870BD002CD2
:1002900018BFAC423CBF20466468F8D301680A1816
:1002A000AA4218BF456003D12A680546114401607F
:1002B00028684119A1421CBF6C6070BD616869600B
:1002C00021680844286070BD0FB41CB5084B06AA0D
:1002D0007B4469460090059800F0CBFA0446002064
:1002E000694600F0D9FA20461CBC5DF814FB0000FA
:1002F000C50500002DE9F041064600241068752967
:10030000314616A510D0AFF30080002802DA404233
:1003100013A507E031688A0701D512A502E0490755
:1003200004D511A5012401E0AFF3008000210A22C9
:1003300006F1240709E0B0FBF2FCB0FBF2F302FB8C
:100340001C00303078541846491C0028F3D123464D
:100350002A463046BDE8F04100F02CBA000000000B
:100360002D0000002B000000200000002DE9F05FB0
:10037000894604464FF0000ADFF874B1FB44C0F828
:1003800020A02046E1688847002874D0252806D0A0
:10039000D4E901219047206A401C2062F1E7002641
:1003A0005F462046E16888472028054607DB312D57
:1003B00005D2781910F8200C08B10643F1E7B00710
:1003C00001D526F00406C4F81CA00027C4F818A024
:1003D0002A2D09D0284602F015FA38B304EB870815
:1003E000303DC8F8185019E059F8041B204604EBBA
:1003F00087029161E1688847012F054618D1E069BD
:10040000002820DA26F020061DE0D8F8180000EBBE
:10041000800005EB40003038C8F818002046E1683D
:100420008847054602F0EEF90028EED1012F0AD0E8
:100430002E2D08D12046E16888477F1C0546022FF3
:1004400046F02006C4DBA069002803DA404246F0EB
:100450000106A061F00701D026F010066C2D0BD02C
:10046000682D09D04C2D39D06A2D35D0742D35D05A
:100470007A2D33D016E038E0E1682F4620468847D1
:10048000B842054609D16C2F26D04FF48060E16850
:10049000064320468847054604E06C2F1AD04FF4E7
:1004A000807006430DB3A5F14100192802D820350C
:1004B00046F400664A462946204626604E46FFF727
:1004C00071FE80B101280BD0F61D26F0070000F167
:1004D000080956E74020E4E78020D8E70020D6E767
:1004E00006F104094DE7284652E7206ABDE8F09F6F
:1004F00064270000401ECAB210F8011F8A4202D0D1
:100500000029F9D10020704710B5431E13F8014FA0
:10051000002CFBD105E011F8014B002C03F8014B36
:1005200003D0521EF7D20021197010BD30B5054618
:100530000B462A4613F8014B12F8010B08B1A042F2
:10054000F8D01CB1002802D06D1CF1E7284630BD60
:1005500040EA0103024630B59B0710D14FF0013449
:1005600000E008C208C91D1B9D4315EAC41FF8D04E
:1005700013F0FF0102F8011B0DD01B0AF8E711F878
:10058000013B002B02F8013B05D011F8013B002B89
:1005900002F8013BF3D130BD10B5431C02E010F866
:1005A000011B71B18107FAD14FF0013202C88C1AD8
:1005B0008C4314EAC211F9D0C01A0A0603D0C01E37
:1005C00010BDC01A10BD0A0401D0801E10BD090262
:1005D000FCD0401E10BD421E12F8013F002BFBD183
:1005E00011F8013B002B02F8013BF9D17047032AB7
:1005F00040F2308010F0030C00F0158011F8013B40
:10060000BCF1020F624498BF11F801CB00F8013B26
:1006100038BF11F8013BA2F1040298BF00F801CBEA
:1006200038BF00F8013B11F0030300F03A81083AAB
:10063000C0F0088051F8043B083A51F804CBA0E818
:100640000810F5E7121D5CBF51F8043B40F8043B6D
:10065000AFF30080D20724BF11F8013B11F801CBA2
:1006600048BF11F8012B24BF00F8013B00F801CB73
:1006700048BF00F8012B70474FF000020429C0F07A
:10068000128010F0030C00F01B80CCF1040CBCF1C4
:10069000020F18BF00F8012BA8BF20F8022BA1EB16
:1006A0000C0100F00DB85FEAC17C24BF00F8012BFB
:1006B00000F8012B48BF00F8012B70474FF00002F3
:1006C00000B5134694469646203922BFA0E80C5048
:1006D000A0E80C50B1F12001BFF4F7AF090728BF23
:1006E000A0E80C5048BF0CC05DF804EB890028BF9F
:1006F00040F8042B08BF704748BF20F8022B11F0C8
:10070000804F18BF00F8012B704770477047704743
:1007100000487047D8000020704770477047704706
:1007200038B504460A4600206946AFF30080002829
:1007300008BF38BD02460099204600F0E9F80120C4
:1007400038BD012000F0FEB8F8B5AFF300800546D3
:1007500000200C46102000BF0646A819A0420DD963
:10076000324669460020AFF30080070008BF00F062
:10077000E9F80098A04218BF0546C419FFF7C8FF62
:1007800005600746F01D20F007004619284600F0D6
:100790000AF8B44208BFF8BDA21B31463868BDE86C
:1007A000F84000F0B5B800210160C0E901107047C1
:1007B000102070472DE9F0470D46994692460446B1
:1007C00000F124080168880604D5E06921F01001D1
:1007D000216000E00120A84201DD471B00E0002766
:1007E000A1697A1902EB0900081AA0612078C006F5
:1007F00002D42046AFF30080002608E0D4E90121AE
:100800001AF806009047206A401C761C20624E456C
:10081000F4DB2078C0060AD52046AFF3008006E05E
:10082000D4E9012130209047206A401C2062381E04
:10083000A7F10107F4DC07E0D4E9012118F805006D
:100840009047206A401C2062281EA5F10105F3DCB8
:100850002046AFF300802078000602D50220BDE8D4
:10086000F0870120FBE7000001694A1C026108785B
:10087000704700B58FB0CDE90131002105910549E0
:100880007944CDE9031011466846FFF76FFD0FB0BC
:1008900000BD0000E5FFFFFF0A6802F8010B0A60D7
:1008A000704710B5203AC0F00B80B1E81850203ADC
:1008B000A0E81850B1E81850A0E81850BFF4F5AF00
:1008C0005FEA027C24BFB1E81850A0E8185044BF8A
:1008D00018C918C0BDE810405FEA827C24BF51F8F7
:1008E000043B40F8043B08BF7047D20728BF31F8EB
:1008F000023B48BF11F8012B28BF20F8023B48BF3C
:1009000000F8012B7047000000487047D00000201D
:10091000034640688C46002818BF88423CBF034607
:100920004068F8D318681844884207D00CF10300D7
:1009300020F00700001D411A521A0146081D0A60E6
:10094000FFF79BBC10B500F035F8BDE8104000F093
:100950002CB870477546FFF7D7FFAE4605006946CD
:10096000534620F00700854618B020B5FFF744FC39
:10097000BDE820404FF000064FF000074FF00008A0
:100980004FF0000B21F00701AC46ACE8C009ACE821
:10099000C009ACE8C009ACE8C0098D467047044600
:1009A000AFF300802046FFF713FC002801D000F0D1
:1009B00029B8704710B5012805D0002103A000F028
:1009C00027F8012010BD09A1F8E70000534947525C
:1009D000544D454D3A204F7574206F66206865610F
:1009E00070206D656D6F7279000000003A204865D7
:1009F0006170206D656D6F727920636F72727570B2
:100A00007465640001491820ABBEFEE726000200B1
:100A100070B505460C460A2000E06D1C00F011F888
:100A200035B128780028F8D102E0641C00F009F8FC
:100A300014B120780028F8D1BDE870400A20AFF347
:100A4000008008B569468DF800000320ABBE08BDE4
:100A500000BFFEE7704710B50446207B012802D195
:100A60002068FFF70AFC002020606060A06020730F
:100A700010BD70B504460E460025206898B90120C7
:100A800020733046FFF7CAFB20602068E0B10020E9
:100A90006060A66003E00020216848556D1CA068D6
:100AA000A842F8D810E00220207303E0002021685B
:100AB00048556D1CA068A842F8D800206060A06866
:100AC000B04201D20020206070BD2DE9F047804681
:100AD0000E4691461D46089C70190DB1062100E096
:100AE00002214718791D2046FFF7C3FF206810B97F
:100AF0000120BDE8F087B0216268501C606020686A
:100B00008154A1888AB23946206801F00CFE6168E0
:100B10000844606031126268501C60602068815433
:100B20006268501C606020688654D4E900128818FE
:100B300032464146FFF75BFD60683044606015B3A4
:100B4000290E6268501C606020688154C5F307411B
:100B50006268501C606020688154C5F30721626898
:100B6000501C6060206881546268501C606020687E
:100B70008554D4E9001288182A464946FFF737FD04
:100B80006068284460600020B3E700002DE9F0476A
:100B90008046894617461C464046FFF7FDFCC5B215
:100BA0004846FFF7F9FCC6B238212046FFF761FF3F
:100BB000206810B90120BDE8F08710202168087076
:100BC0006068401C606005F10D0030442168487089
:100BD0006068401C606000202168887003202168E4
:100BE000C8706068801C60602168081D032221A114
:100BF000FFF78AFC6068C01C606001202168C87132
:100C00006068401C60604020216808726068401C79
:100C10006060380A2168487221688F726068801CA1
:100C2000606000202168C87221680D736068801CB4
:100C30006060216801F10D002A464146FFF764FC1F
:100C4000606828446060002105F10D00226811549D
:100C5000401C226816546068801C606021680F3157
:100C6000481932464946FFF74FFC606830446060DF
:100C70000020A0E7454450002DE9F84F81460D467D
:100C800017461E460A9C002000904846FFF784FC49
:100C900000F0FF08022E03D117B90120BDE8F88F3C
:100CA000022E09D13846FFF777FC00F10F0A5146B2
:100CB0002046FFF7DEFE04E005F118012046FFF7AD
:100CC000D8FE206808B90220E8E780216268501C3D
:100CD000606020688154B9F1000F3ED0022E06D129
:100CE0003846FFF759FC0C302844009003E005F12A
:100CF000080040440090A1888AB22068009901F061
:100D000012FD616808446060C0216268501C606028
:100D10002068815400216268501C60602068815402
:100D20006168481C6060206800F80180D4E9001206
:100D3000881842464946FFF7E7FB60684044606018
:100D400055216268501C606020688154AA21626845
:100D5000501C60602068815425E0022E06D1384680
:100D6000FFF71AFC0A302844009001E0A81D00900B
:100D7000A1888AB22068009901F0D5FC6168084416
:100D8000606040216268501C606020688154552179
:100D90006268501C606020688154AA216268501CFF
:100DA0006060206881546168481C60602068465417
:100DB000022E3AD13846FFF7EFFB00F0FF0A4FF062
:100DC000000B00216268501C6060206881546168DB
:100DD000481C6060206800F801A00AE017F80B10BA
:100DE0006268501C6060206881540BF1010000F0C3
:100DF000FF0BD345F2DB290E6268501C606020684F
:100E00008154C5F307416268501C606020688154BA
:100E1000C5F307216268501C6060206881546268D5
:100E2000501C6060206885540BE0C5F307216268A0
:100E3000501C6060206881546268501C60602068AB
:100E4000855400202AE72DE9F84305460E4617464B
:100E50009846DDF820900020009000242046641C75
:100E6000285CA02802D00120BDE8F883A2B2694620
:100E7000284600F09DFD0446601C08B90220F3E7F7
:100E8000601C285C295D40EA01203880A41C398858
:100E9000481CFFF7C3F93060306808B90320E3E766
:100EA0003A88511C3068FFF7E7FB3A882919306807
:100EB000FFF79DFB38880444285D0106601C285C10
:100EC00041EA0041A01C285C41EA0020E11C695C69
:100ED0000843C9F80000241DD9F80010481CFFF78A
:100EE0009DF9C8F80000D8F8000020B93068FFF775
:100EF000C4F90420B8E7D9F80020511CD8F8000044
:100F0000FFF7BAFB2919D9F80020D8F80000FFF73D
:100F10006EFBD9F8000004440020A5E70146C8781C
:100F2000704701460878704710B580210348FFF7E5
:100F3000A3FB00200249088010BD00004E000020E5
:100F40003A00002070B50546002400BF00F01AF9F1
:100F500080B90DA10E48FFF7E9FA044654B13A21D1
:100F60002046FFF7C7FA044614B1641C204670BD42
:100F70000020FCE7052001F079FC2800A5F1010123
:100F80008DB2E3D100BFF2E74950442C00000000CD
:100F90004E00002008B50121042000F07FFC102045
:100FA0008DF803008002ADF8000003208DF80200E8
:100FB0006946284800F000F900224FF48041254896
:100FC00000F089F94FF4FA7001F050FC012291030E
:100FD000204800F080F94FF4FA7001F047FCFFF769
:100FE000A3FF03E04FF4FA7001F040FC1AA11BA02C
:100FF00000F07AF80028F5D103E04FF4FA7001F020
:1010000035FC15A117A000F06FF80028F5D103E01A
:101010004FF4FA7001F02AFC0FA116A000F064F85A
:101020000028F5D103E04FF4FA7001F01FFC15A180
:1010300016A000F059F80028F5D103E04FF4FA703B
:1010400001F014FC1CA11EA000F04EF80028F5D100
:1010500008BD0000001001404F4B000041540D0A34
:101060000000000041542B43574D4F44453D310D86
:101070000A00000041542B4357444843503D312C53
:10108000310D0A00474F54204950000041542B4372
:10109000574A41503D2254656E64615F3538353999
:1010A0003730222C22313939376865736F6E6766A5
:1010B00061220D0A00000000434F4E4E454354008C
:1010C00041542B43495053544152543D22544350B0
:1010D000222C223138332E3233302E34302E333915
:1010E000222C3837360D0A002DE9F04104460D4612
:1010F000C8262046FFF750FA87B23A4621460D48E7
:1011000001F0F8FA0FE000F03DF848B929460A4826
:10111000FFF70CFA20B1FFF707FF0020BDE8F081D0
:101120000A2001F0A3FB3000A6F10101CEB2EAD102
:101130000120F3E7004400404E00002030B589B0A4
:1011400004460D46FFF7F0FE2A4608A101A8FFF766
:10115000BBF80AA101A8FFF7C7FF20B92A4621461C
:10116000074801F0C7FA09B030BD000041542B43D5
:10117000495053454E443D25640D0A003E00000091
:10118000004400400A48008808B901207047084818
:10119000008808490988884203D100200449088052
:1011A000F4E703480088034908800120EEE70000C7
:1011B0003A0000203C0000202DE9F04102460025C5
:1011C0000026002000230024002791F803C00CF023
:1011D0000F0591F803C00CF0100CBCF1000F03D008
:1011E00091F802C04CEA050591F800C0BCF1000F6F
:1011F00031D0146800202BE04FF0010C0CFA00F302
:10120000B1F800C00CEA03069E4220D183004FF0E3
:101210000F0C0CFA03F7BC4305FA03FC4CEA040478
:1012200091F803C0BCF1280F06D14FF0010C0CFA65
:1012300000FCC2F814C00AE091F803C0BCF1480FEA
:1012400005D14FF0010C0CFA00FCC2F810C0401C94
:101250000828D1D31460B1F800C0BCF1FF0F34DD11
:10126000546800202EE000F1080C4FF0010808FA45
:101270000CF3B1F800C00CEA03069E4221D18300B2
:101280004FF00F0C0CFA03F7BC4305FA03FC4CEAD1
:10129000040491F803C0BCF1280F05D100F1080C3B
:1012A00008FA0CF8C2F8148091F803C0BCF1480F9A
:1012B00007D100F1080C4FF0010808FA0CF8C2F849
:1012C0001080401C0828CED35460BDE8F0814161F5
:1012D0007047016170470AB1016100E041617047E8
:1012E00000BFFEE710B54FF4A06000F00FF901F069
:1012F0009BFA4FF4E13001F0A7F901F02BFA00F06E
:101300001BF800F0FFFB00F02FFA01F0D5FA10BD3A
:1013100010B504464021074801F05EF82146054813
:1013200001F08BF900BF4021024801F0B9F8002814
:10133000F9D010BD0048004010B500F057F84FF448
:101340007A7001F066FAAA20FFF7E2FF0B20FFF7A0
:10135000DFFF0120FFF7DCFF0220FFF7D9FFB820F5
:10136000FFF7D6FF4FF47A7001F053FAAA20FFF787
:10137000CFFF1320FFF7CCFF0120FFF7C9FF1E208E
:10138000FFF7C6FFDC20FFF7C3FF40F2DC5001F09F
:1013900040FAAA20FFF7BCFF1320FFF7B9FF012096
:1013A000FFF7B6FF1E20FFF7B3FFDC20FFF7B0FF0B
:1013B00040F2DC5001F02DFA10BD70B50446002556
:1013C00004F1B300C5B2AA20FFF7A2FF0720FFF780
:1013D0009FFF0220FFF79CFF0020FFF799FFE0B27C
:1013E000FFF796FF2846FFF793FF70BD00B585B065
:1013F0000121880400F032FA0121082000F04EFAA1
:101400000121102000F04AFA4FF48060ADF810007E
:1014100003208DF8120018208DF8130004A91A4833
:10142000FFF7CAFE4FF40060ADF8100004208DF8FD
:10143000130004A91448FFF7BFFE4FF40050ADF8A5
:10144000100003208DF8120028208DF8130004A945
:101450000E48FFF7B1FE4FF4165000900020ADF893
:101460000400ADF80600ADF80800ADF80C000C2043
:10147000ADF80A006946064801F06EF801210448FB
:1014800000F0B3FF05B000BD000C014000100140AA
:101490000048004000BFFEE77047000070B5002123
:1014A00000230F22C47804B3154C246804F4E064CC
:1014B000C4F5E064210AC1F10403CA40447804FA87
:1014C00003F184781440214309010E4C0678A1559C
:1014D000047804F01F050124AC4005786D11AD00BF
:1014E00005F1E025C5F8004109E0047804F01F0586
:1014F0000124AC40044D0678761145F8264070BDB5
:101500000CED00E000E400E080E100E0024901436E
:10151000024A1160704700000000FA050CED00E07F
:101520007FB50020009001900290039001256B464A
:101530002A021BA122A0FFF729FB50BB019A91B2FE
:101540000098FFF7FBFDFA20FFF7FCFC0446ECB126
:101550002046FFF7E6FC202818D12046FFF7DEFCE6
:101560000A2811D2DFE800F0050708090A0B0C0D64
:101570000E0F002509E008E007E006E005E004E0C2
:1015800003E002E001E000E000BF00BF6846FFF7B3
:1015900062FA15B1012004B070BD0020FBE7000025
:1015A000394F386230746E6F6D4D6B336C6C6D7586
:1015B00072366A365A7261694653453D0000000032
:1015C0003537363539303339300000001FB5044621
:1015D000002000900190029003900CA12046FEF79D
:1015E000B7FF00200090019002900390084809A1E5
:1015F00002686846FEF768FE69462046FEF7EBFF84
:101600002046FEF7C9FFC0B204B010BD2C3B00005D
:101610004000002066656E677368616E2C25643B30
:101620000000000070B58AB00446002006900790C4
:1016300008900990059004900390029000260025E0
:101640002046FFF76EFC0646902E15D0A02E1BD12B
:1016500002A803AB04AA05A900902046FFF7F3FBFC
:10166000054645B906A80090BDF81010DDE9023224
:101670000598FFF72AFA0AE0E078552802D1207988
:10168000AA2800D003E000BF4FF0FF3500BF00BF25
:10169000FFF74AFC681C08B90AB070BD12A1039894
:1016A000FEF744FF18B102211248FFF712FE12A103
:1016B0000398FEF73BFF18B102210E48FFF707FE23
:1016C000A02E0ED16DB90598FEF7D7FD0398FEF751
:1016D000D4FD079A91B20698FFF730FD06A8FFF7F0
:1016E000BAF900BFD8E7000066656E677368616E7F
:1016F000310000000008014066656E677368616E26
:101700003000000030B5A5B0002021902290239039
:10171000249000240025802101A8FEF7CFFF01A816
:10172000FFF754FF0446E4B121A805230022214617
:1017300000901046FFF7A0FA98B908E001A8415DB3
:10174000229A501C229021988154681C05B2A5420F
:10175000F4DB229A91B22198FFF7F0FC21A8FFF761
:101760007AF925B030BD000000B589B0012108200C
:1017700000F094F80121042000F070F801210846DF
:1017800000F08CF84FF47070ADF8040003208DF871
:10179000060018208DF8070001A92D48FFF70CFD61
:1017A0004FF400712A48FFF792FD42F20F70ADF836
:1017B0001C008F20ADF818000020ADF81E00ADF819
:1017C0001A0006A9234800F073FD6020ADF8080058
:1017D0000120ADF80A000020ADF8100002A91D4854
:1017E00000F002FC02A91B4800F054FC02A91948B1
:1017F00000F0B0FC02A9174800F006FD08211548CA
:1018000000F03EFC0821134800F096FC0821114826
:1018100000F0F0FC08210F4800F034FD01210D48D4
:1018200000F0D8FA4FF42F710A4800F038FD4FF459
:101830009671084800F035FD4FF4C871054800F076
:1018400032FD4FF49671034800F02FFD09B000BD42
:10185000000C0140000800407047000029B1064A12
:10186000D2690243044BDA6104E0034AD26982433D
:10187000014BDA61704700000010024029B1064AAE
:1018800012690243044B1A6104E0034A126982435D
:10189000014B1A61704700000010024029B1064A4E
:1018A00092690243044B9A6104E0034A92698243BD
:1018B000014B9A61704700000010024029B1064AAE
:1018C000D2680243044BDA6004E0034AD2688243E0
:1018D000014BDA60704700000010024030B5002173
:1018E0000022002400232D4D6D6805F00C0121B16C
:1018F000042905D0082923D105E0294D056022E0FF
:10190000274D05601FE0254D6D6805F47012234DCD
:101910006D6805F48034022505EB92421CB9214D17
:10192000554305600BE01D4D6D6805F400351DB194
:101930001C4D5543056002E0194D5543056002E01A
:10194000174D056000BF00BF144D6D6805F0F00134
:101950000909154D6B5C0568DD4045600F4D6D68EC
:1019600005F4E061090A104D6B5C4568DD40856057
:101970000A4D6D6805F46051C90A0B4D6B5C4568F2
:10198000DD40C560054D6D6805F44041890B074D8C
:101990006B5CC568B5FBF3F5056130BD0010024016
:1019A00000127A0000093D00080000201800002005
:1019B000F0B503460124002600250020086000BF82
:1019C0001046571CBAB21D5C05F07F07086807FB7C
:1019D00004000860E401761C042E02D94FF0FF30A9
:1019E000F0BD05F080000028EAD11046F8E7704706
:1019F00010B500F001F810BD0CB50020019000906A
:101A00003348006840F480303149086000BF3048F6
:101A1000006800F4003000900198401C019000988C
:101A200018B90198B0F5A06FF1D12948006800F409
:101A3000003010B10120009001E0002000900098DB
:101A4000012843D12348006840F010002149086074
:101A50000846006820F0030008600846006840F06F
:101A6000020008601A484068194948600846406802
:101A700048600846406840F4806048600846406816
:101A800020F47C1048600846406840F4E810486044
:101A90000846006840F08070086000BF0C4800688D
:101AA00000F000700028F9D00948406820F00300D9
:101AB000074948600846406840F00200486000BF9F
:101AC0000348406800F00C000828F9D10CBD000064
:101AD0000010024000200240042808D14FF0E0210D
:101AE000096941F004014FF0E022116107E04FF075
:101AF000E021096921F004014FF0E02211617047F3
:101B0000704700001FB501210846FFF7A7FE4FF000
:101B1000804000F06BF92820ADF8080048F69F409F
:101B2000ADF804000020ADF80A00ADF8060001A9E8
:101B30004FF0804000F0BCFB0121880700F044F921
:101B40004FF4A060FFF7E2FC1C208DF8000002209B
:101B50008DF801008DF8020001208DF80300684621
:101B6000FFF79CFC01221146900700F033FA012197
:101B7000880700F02FF90020014908801FBD0000F0
:101B800044000020024610780B78984203D0087871
:101B90001070012070470020FCE7000010B51348CA
:101BA000006840F00100114908600846406810498B
:101BB00008400E494860084600680E4908400B4935
:101BC00008600846006820F48020086008464068E5
:101BD00020F4FE0048604FF41F008860FFF708FF04
:101BE0004FF000600449086010BD00000010024082
:101BF0000000FFF8FFFFF6FE08ED00E010B5012140
:101C0000880700F0E4F86E480068401C6C490860E2
:101C1000084600684EF66021884202DD00206849CF
:101C2000086068480078401C66490870087800EB36
:101C3000D0714910A0EB4101624A11706048006800
:101C4000052190FBF1F201FB120060B95D4840787C
:101C5000401C5C494870487800EBD0714910A0EBFB
:101C60004101584A517056480068192190FBF1F221
:101C700001FB120060B953488078401C51498870BC
:101C8000887800EBD0714910A0EB41014D4A91706A
:101C90004B480068322190FBF1F201FB120060B961
:101CA0004848C078401C4749C870C87800EBD071DC
:101CB0004910A0EB4101434AD170414800686421BA
:101CC00090FBF1F201FB120060B93E480079401C24
:101CD0003C490871087900EBD0714910A0EB410133
:101CE000384A117136480068FA2190FBF1F201FB85
:101CF000120060B933484079401C32494871487934
:101D000000EBD0714910A0EB41012E4A51712C48D3
:101D100000684FF4FA7190FBF1F201FB120060B918
:101D200028488079401C27498871887900EBD07158
:101D30004910A0EB4101234A91712148006840F607
:101D4000B83190FBF1F201FB120060B91D48C07977
:101D5000401C1C49C871C87900EBD0714910A0EB38
:101D60004101184AD1711648006843F6982190FB4A
:101D7000F1F201FB120060B91248007A401C1149CF
:101D80000872087A00EBD0714910A0EB41010D4AAE
:101D900011720B48006847F2305190FBF1F201FBE1
:101DA000120060B90748407A401C06494872487AD8
:101DB00000EBD0714910A0EB4101024A517210BDF5
:101DC0000400002044000020CA4302827047CA4336
:101DD0000282704721B1028842F00102028004E0D1
:101DE00002884FF6FE731A400280704710B5044611
:101DF0006848844208D10121C014FFF75FFD00212B
:101E0000E014FFF75BFDC4E0B4F1804F08D101217D
:101E10000846FFF733FD00210120FFF72FFDB8E052
:101E20005D48844208D101210220FFF727FD0021EF
:101E30000220FFF723FDACE05848844208D101217D
:101E40000420FFF71BFD00210420FFF717FDA0E091
:101E50005348844208D101210820FFF70FFD0021DB
:101E60000820FFF70BFD94E04E48844208D1012181
:101E70001020FFF703FD00211020FFF7FFFC88E092
:101E80004948844208D101212020FFF7F7FC0021B6
:101E90002020FFF7F3FC7CE04448844208D1012174
:101EA0004014FFF70BFD00216014FFF707FD70E001
:101EB0003F48844209D10121C804FFF7FFFC0021FB
:101EC0004FF40020FFF7FAFC63E03A48844209D15E
:101ED00001210805FFF7F2FC00214FF48010FFF705
:101EE000EDFC56E03448844209D101214805FFF752
:101EF000E5FC00214FF40010FFF7E0FC49E02F481B
:101F0000844208D101214020FFF7B8FC0021402085
:101F1000FFF7B4FC3DE02A48844208D1012180202B
:101F2000FFF7ACFC00218020FFF7A8FC31E025483A
:101F3000844208D101218015FFF7A0FC0021A015E3
:101F4000FFF79CFC25E02048844209D101210804C8
:101F5000FFF7B4FC00214FF48030FFF7AFFC18E02E
:101F60001A48844209D101214804FFF7A7FC002147
:101F70004FF40030FFF7A2FC0BE01548844208D173
:101F800001218804FFF79AFC00214FF48020FFF71D
:101F900095FC10BD002C01400004004000080040EA
:101FA000000C0040001000400014004000340140CC
:101FB000004C014000500140005401400018004016
:101FC000001C00400020004000400140004401404F
:101FD000004801401AB183890B43838102E0838961
:101FE0008B4383817047000070B5002400220023DA
:101FF000058C4FF6FE7635400584028C8388048B71
:102000004FF68F752C40B51E2C400D882C43751E45
:102010002A400D892A434D882A43144DA8420BD0EB
:10202000134DA84208D0134DA84205D0124DA84226
:1020300002D0124DA84213D14FF6F7752A404D89B0
:102040002A434FF6FB752A408D882A434FF6FF65D9
:102050002B404FF6FF552B408D892B43CD892B43C9
:1020600083800483CD888586028470BD002C014066
:10207000003401400040014000440140004801405C
:102080000A460021018B4FF6F77319401143018373
:102090007047000070B5002400220023058C4FF625
:1020A000EF7635400584028C8388048B48F6FF75F3
:1020B0002C404FF6FF452C400D884FF6FF7606EA80
:1020C00005252C434FF6DF752A400D8906EA0515D4
:1020D0002A434D8806EA05152A43154DA84202D029
:1020E000144DA8421DD14FF67F752A404D894FF6F9
:1020F000FF7606EA05152A434FF6BF752A408D88FC
:1021000006EA05152A434FF6FF352B404FF2FF75BF
:102110002B408D8906EA85052B43CD8906EA850586
:102120002B4383800483CD880587028470BD000023
:10213000002C0140003401400A460021018B4FF27F
:10214000FF7319404FF6FF7303EA0223194301831B
:102150007047000070B5002400220023058C4FF664
:10216000FF6635400584028C8388848B4FF68F751B
:102170002C404FF6FC752C400D882C434FF6FF5534
:102180002A400D894FF6FF7606EA05252A434D8839
:1021900006EA05252A43154DA84202D0144DA8424F
:1021A0001DD14FF2FF752A404D894FF6FF7606EAA2
:1021B00005252A434FF6FF352A408D8806EA052576
:1021C0002A434EF6FF752B404DF6FF752B408D8947
:1021D00006EA05152B43CD8906EA05152B438380B6
:1021E0008483CD888587028470BD0000002C014067
:1021F000003401400A460021818B4FF6F7731940E5
:10220000114381837047000070B500220023002431
:10221000058C4EF6FF7635400584038C8488828BCE
:1022200048F6FF752A404FF6FF452A400D884FF6C5
:10223000FF7606EA05252A434DF6FF752B400D89EA
:1022400006EA05352B434D8806EA05352B430B4D31
:10225000A84202D00A4DA84208D14BF6FF752C4087
:102260008D894FF6FF7606EA85152C43848082839C
:10227000CD88A0F84050038470BD0000002C0140C0
:10228000003401400A460021818B4FF2FF73194050
:102290004FF6FF7303EA0223194381837047818657
:1022A00070470187704781877047A0F840107047DA
:1022B000002202881D4B98420ED01D4B98420BD035
:1022C000B0F1804F08D01B4B984205D01A4B984272
:1022D00002D01A4B984204D14FF68F731A404B88A4
:1022E0001A43174B984207D0164B984204D04FF62A
:1022F000FF431A40CB881A4302808B8883850B8862
:1023000003850A4B98420BD0094B984208D00E4BDC
:10231000984205D00D4B984202D00D4B984201D106
:102320000B7A03860123838270470000002C014052
:10233000003401400004004000080040000C004050
:1023400000100040001400400040014000440140E3
:102350000048014010B5002440F22551084800F023
:10236000ACF858B1064800F063F9C4B205480078EB
:1023700020B90548047001200249087010BD000012
:1023800000380140010000200000002010B540F29C
:1023900025510E4800F091F8B0B10D480088802812
:1023A00002D300200A4908800848001D0088C1B2F5
:1023B000074802880088401C054B18800548815456
:1023C0002021024800F008F810BD00000044004041
:1023D0003A0000204E00002001F40072B2F5007FA8
:1023E00000D100BFCA430280704721B1828942F404
:1023F0000052828104E082894DF6FF731A40828187
:102400007047000010B504462048844209D10121DC
:102410008803FFF753FA00214FF48040FFF74EFA8C
:1024200032E01B48844209D101214804FFF726FA13
:1024300000214FF40030FFF721FA25E015488442CF
:1024400009D101218804FFF719FA00214FF48020F7
:10245000FFF714FA18E01048844209D10121C8049A
:10246000FFF70CFA00214FF40020FFF707FA0BE00A
:102470000A48844208D101210805FFF7FFF900212D
:102480004FF48010FFF7FAF910BD0000003801404A
:102490000044004000480040004C00400050004014
:1024A00002460020B1F5007F00D100BF13880B4029
:1024B0000BB1012000E00020704770B502460024F7
:1024C00000230025002040F66A16B14200D100BF6B
:1024D000C1F3421501F01F03012606FA03F3012D93
:1024E00002D19689334006E0022D02D1168A33408C
:1024F00001E0968A33400C12012606FA04F416888D
:10250000344013B10CB1012000E0002070BDF0B5E3
:102510000346002400260025002040F66A17B94231
:1025200000D100BF1846C1F3421401F01F06012775
:1025300007FA06F5012C01D10C3004E0022C01D180
:10254000103000E014301AB107682F43076002E032
:102550000768AF430760F0BD2DE9F04786B0054638
:102560000E460024A24600BFA1460027B08900B154
:1025700000BF2F462C8A4CF6FF700440F0880443BD
:102580002C82AC894EF6F3100440B08831890843A0
:10259000718908430443AC81AC8A4FF6FF40044084
:1025A000B0890443AC8201A8FFF798F91F4887421D
:1025B00002D1DDF810A001E0DDF80CA0A88900F43C
:1025C000004040B10AEBCA0000EB0A103168490034
:1025D000B0FBF1F807E00AEBCA0000EB0A10316823
:1025E0008900B0FBF1F86420B8FBF0F00401200989
:1025F000642101FB1089A88900F4004040B1322019
:1026000000EBC900B0FBF1F000F00700044308E064
:10261000322000EB09106421B0FBF1F000F00F0054
:1026200004432C8106B0BDE8F0870000003801406B
:1026300001468888C0F308007047C1F30802828011
:10264000704700BFFEE7000010B586B004460121C8
:102650000420FFF723F901214804FFF7FFF81820B1
:102660008DF817000420ADF8140003208DF8160033
:1026700005A91E48FEF7A0FD04208DF817000820CC
:10268000ADF8140003208DF8160005A91748FEF7D1
:1026900093FD01940020ADF810000C20ADF80E0061
:1026A0000020ADF80C00ADF80A00ADF8080001A953
:1026B0000F48FFF751FF01210D48FFF796FE012259
:1026C00040F225510A48FFF722FF26208DF800002E
:1026D00001208DF8030000208DF801008DF8020024
:1026E0006846FEF7DBFE06B010BD000000080140A2
:1026F000004400402DE9F04107460C4615460026EF
:102700000DE014F8011B3846FFF797FF00BF40218A
:102710003846FFF7C5FE0028F9D0701C86B2AE42DD
:10272000EFDBBDE8F08170B503460024002500BF53
:1027300001F07F05C90909B145F080051046561C16
:10274000B2B21D54641C09B1052CF1DB501E80B2DD
:10275000024670BD00B587B001218803FFF79EF8DF
:1027600001210420FFF79AF82448FFF74BFE4FF4AD
:102770000070ADF8180003208DF81A0018208DF8AD
:102780001B0006A91E48FEF717FD4FF48060ADF848
:10279000180004208DF81B0006A91948FEF70CFD4F
:1027A00025208DF8040002208DF8050000208DF80A
:1027B000060001208DF8070001A8FEF76FFE4FF418
:1027C000165002900020ADF80C00ADF80E00ADF8E8
:1027D0001000ADF814000C20ADF8120002A9074853
:1027E000FFF7BAFE012240F225510448FFF78FFEA1
:1027F00001210248FFF7F9FD07B000BD0038014094
:102800000008014030380A2801D20120704700201A
:10281000704706E04FF47A7100E0491E0029FCD1B0
:10282000401E0028F6D1704710B56FF00400FFF786
:1028300053F90A4800680A49B0FBF1F009490870E9
:102840000846007800EB4001C1EBC0104FF6FF7165
:1028500001EAC0000449088010BD000020000020EB
:1028600000127A001C0000201E0000200146114AC0
:1028700012884A434FF0E0235A6100229A611A46B7
:10288000126942F001021A6100BF4FF0E0221069A4
:1028900000F001021AB100F48032002AF5D04FF0A6
:1028A000E022126922F001024FF0E0231A610022B7
:1028B0009A6170471E00002008B501210420FEF730
:1028C000EDFF10208DF803000220ADF8000003207A
:1028D0008DF8020069460448FEF76EFC02210248AA
:1028E000FEF7F5FC08BD00000008014000250024AB
:1028F000FEF7F8FCFEF74EFB03E04FF4FA70FFF72B
:10290000B5FFFEF70DFE0028F7D1D5E0681C80B2B8
:102910000546B0F57A7F04DBFEF7F4FE0025FEF7EE
:1029200003FB0020FEF70EFB044614B12046FEF721
:1029300079FE0A20FFF79AFF60480078012851D1FC
:102940005F480078312803D05D480078322806D1EE
:1029500001205C4908700520FEF72FFD3FE0594833
:10296000007801283BD10020564908705449087866
:10297000C11700EB91718910A0EB8101012906D1EB
:102980000120FEF71AFD01204F49087027E04C494D
:102990000878C11700EB91718910A0EB8101022921
:1029A00006D10220FEF709FD01204849087016E013
:1029B00043490878C11700EB91718910A0EB8101A0
:1029C000032906D10320FEF7F8FC012040490870D6
:1029D00005E00420FEF7F1FC01203E4908700020CC
:1029E000364908703C493D48FFF7CCF8012863D1CF
:1029F00035480078A8B134480078401C3249087046
:102A000040F2E2413648FFF74AFC2F48007806289A
:102A100007DD4FF4FA713248FFF741FC00202A49E4
:102A200008702A480078A8B128480078401C274937
:102A300008704FF448712A48FFF733FC23480078A8
:102A4000062807DD4FF496712548FFF72AFC002081
:102A50001E4908701E480078A8B11D480078401C27
:102A60001B4908704FF496611D48FFF71CFC18487D
:102A70000078062807DD4FF4C8711948FFF713FCEA
:102A800000201349087013480078A8B11148007855
:102A9000401C104908704FF496611148FFF705FC7F
:102AA0000C480078062807DD4FF496710C48FFF7B4
:102AB000FCFB00200749087028E700000100002007
:102AC00000000020390000203400002035000020E4
:102AD000360000203700002047000020380000208A
:102AE0000008004004000008000000000000000290
:102AF0000001000010000000182B0008000000205A
:102B0000440000006C0100085C2B00084400002019
:102B1000EC06000088010008000000000000000032
:102B20000000000001020304010203040607080973
:102B3000020406080000000000A24A040000000091
:102B4000000000000102030406070809000000005D
:0C2B500000000000000000000000000079
:0400000508000131BD
:00000001FF
